:020000040800F2
:1000000000C00020CD620008B34A0008B54A0008CD
:10001000B74A0008B94A0008BB4A000800000000BF
:10002000000000000000000000000000BD4A0008C1
:10003000BF4A000800000000C14A0008C34A000887
:1000400015630008156300081563000815630008B0
:1000500015630008156300081563000815630008A0
:10006000156300081563000815630008FD400008CB
:100070001563000815630008156300081563000880
:10008000D14A0008E14A000815630008156300081A
:100090001563000815630008156300081563000860
:1000A0001563000815630008156300081563000850
:1000B0001563000815630008156300081563000840
:1000C0001563000815630008156300081563000830
:1000D0001563000815630008F14A0008156300085D
:1000E0001563000815630008156300081563000810
:1000F0001563000815630008156300081563000800
:1001000015630008156300081563000815630008EF
:1001100015630008156300081563000815630008DF
:1001200015630008156300081563000815630008CF
:1001300000000000000000000000000000000000BF
:1001400000000000000000000000000000000000AF
:10015000000000000000000000000000000000009F
:10016000000000000000000000000000000000008F
:10017000000000000000000000000000000000007F
:10018000000000000000000000000000000000006F
:10019000000000000000000000000000000000005F
:1001A000000000000000000000000000000000004F
:1001B000000000000000000000000000000000003F
:1001C000000000000000000000000000000000002F
:1001D000000000000000000000000000000000001F
:0401E0005FF8E0F1F3
:1001E40010B5054C237833B9044B13B10448AFF36D
:1001F40000800123237010BDC8010020000000000E
:100204003073000808B5034B1BB103490348AFF32F
:10021400008008BD00000000CC01002030730008FD
:10022400044B0022DA61044A136943F001031361A9
:1002340001807047E801002000200240194BDB6870
:1002440013F0100305D0184AD36943F00203D361B5
:100254001023144AD26812F0040F06D01249CA6956
:1002640042F00102CA6143F004030E4AD26912F05B
:10027400010F09D00C49CA6942F00402CA61094954
:10028400CA6922F00102CA6140F20112934202D00B
:10029400044AD3607047034AD36923F00103D3614E
:1002A400704700BF00200240E8010020074B1B6993
:1002B40013F0800F07D0054B054A5A6002F18832CB
:1002C4005A60002070470120704700BF00200240A0
:1002D40023016745034A136943F080031361002037
:1002E400704700BF0020024038B5044601F082F98F
:1002F4000546164BDB6813F0010F0AD0B4F1FF3F3B
:10030400F7D024B101F076F9401BA042F1D90320C3
:100314001BE00E4BDB6813F0200F02D00B4B2022A6
:10032400DA600A4BDB6813F0100F0BD1074BDB6963
:1003340013F0010F06D1054BDB6813F0040F01D154
:10034400002002E0FFF77AFF012038BD00200240C0
:100354002DE9F8431E46244B1B7E012B41D0044655
:100364000F469046204B01221A764CF25030FFF78C
:10037400BBFF034678BB012C08D0022C03D04FF0FE
:1003840004091C4607E04FF00209FAE74FF001099F
:10039400F7E70134E4B24C451DD22101C1F120023A
:1003A400A1F1200328FA01F106FA02F2114326FA18
:1003B40003F3194389B207EB4400FFF731FF4CF212
:1003C4005030FFF791FF094B1D6925F001051D61B0
:1003D40003460028DDD0044A002111761846BDE802
:1003E400F8830223FAE700BFE8010020002002405E
:1003F40082B0084B1B68084AA2FB03235B0A00FB7C
:1004040003F3019300BF019B5A1E0192002BF9D103
:1004140002B0704700000020D34D621070B582B066
:100424000446036813F0010F2CD09A4B5B6803F069
:100434000C03042B1DD0974B5B6803F00C03082BB3
:1004440012D06368B3F5803F41D0002B55D103F13E
:10045400804303F504331A6822F480321A601A6860
:1004640022F480221A6037E08A4B5B6813F4803FE1
:10047400E7D0884B1B6813F4003F03D06368002B5C
:1004840000F0AE81236813F0020F75D0814B5B68D6
:1004940013F00C0F5FD07F4B5B6803F00C03082B49
:1004A40054D02369002B00F08A807B4B01221A6010
:1004B40001F0A0F80546774B1B6813F0020F75D1C5
:1004C40001F098F8401B0228F5D903208DE1714A08
:1004D400136843F480331360636843B301F08AF80C
:1004E40005466C4B1B6813F4003FCBD101F082F836
:1004F400401B6428F5D9032077E1B3F5A02F09D078
:10050400644B1A6822F480321A601A6822F480223A
:100514001A60E1E703F18043A3F53C331A6842F41F
:1005240080221A601A6842F480321A60D4E701F01B
:1005340061F80546574B1B6813F4003FA2D001F045
:1005440059F8401B6428F5D903204EE1514B5B68F0
:1005540013F4803FA5D14F4B1B6813F0020F03D057
:100564002369012B40F03E814A4A136823F0F803C3
:10057400616943EAC1031360236813F0080F33D0A1
:10058400A369002B5CD0444B0122C3F8802401F002
:1005940031F805463F4B5B6A13F0020F21D101F09D
:1005A40029F8401B0228F5D903201EE1394A1368B3
:1005B40023F0F803616943EAC1031360DCE7364BB7
:1005C40000221A6001F016F80546324B1B6813F03E
:1005D400020FD1D001F00EF8401B0228F5D90320F8
:1005E40003E10120FFF704FF236813F0040F00F078
:1005F4009780284BDB6913F0805F34D1254BDA698F
:1006040042F08052DA61DB6903F080530193019B6D
:100614000125224B1B6813F4807F26D0E368012B4D
:100624003ED0002B54D103F1804303F504331A6AFE
:1006340022F001021A621A6A22F004021A6234E0F9
:10064400154B0022C3F8802400F0D4FF0546114B5B
:100654005B6A13F0020FC7D000F0CCFF401B0228E6
:10066400F5D90320C1E00025D3E70C4A136843F40D
:100674008073136000F0BEFF0646084B1B6813F43A
:10068400807FCBD100F0B6FF801B6428F5D903200E
:10069400ABE000BF00100240000042420070004086
:1006A400544A136A43F001031362E36833B300F05E
:1006B400A1FF06464F4B1B6A13F0020F2FD100F027
:1006C40099FF801B41F288339842F3D903208CE0D0
:1006D400052B09D0474B1A6A22F001021A621A6AE2
:1006E40022F004021A62E0E7424B1A6A42F0040262
:1006F4001A621A6A42F001021A62D6E700F07AFF1F
:1007040006463C4B1B6A13F0020F08D000F072FF40
:10071400801B41F288339842F3D9032065E0E5B9A0
:10072400E369002B60D0334A526802F00C02082AB5
:100734005DD0022B17D0304B00221A6600F05AFF0E
:1007440004462C4B1B6813F0007F47D000F052FF87
:10075400001B0228F5D9032047E0264AD36923F079
:100764008053D361DCE7244B00221A6600F042FF79
:100774000546204B1B6813F0007F06D000F03AFFBB
:10078400401B0228F5D903202FE0236AB3F5803FEC
:100794001AD018494B6823F47413226A606A02431E
:1007A40013434B60144B01221A6600F023FF0446E6
:1007B400104B1B6813F0007F0ED100F01BFF001BD1
:1007C4000228F5D9032010E00A4A536823F40033C1
:1007D400A1680B435360DCE7002006E0002004E03E
:1007E400012002E0012000E0002002B070BD0120E1
:1007F400FBE700BF001002400000424286B0174BE6
:100804000FCB0DF1180C0CE90F0040F20123ADF8E9
:100814000430134B5B6803F00C02082A02D0114821
:1008240006B07047C3F3834218326A4412F8100CBE
:1008340013F4803F0DD00A4B5B68C3F34043183375
:100844006B4413F8142C074BB3FBF2F303FB00F0D7
:10085400E6E7054B03FB00F0E2E700BF487300083E
:100864000010024000127A0000093D0070B50446F1
:100874000D46594B1B6803F007038B420BD2564AB3
:10088400136823F007030B431360136803F0070393
:100894008B4240F09A80236813F0020F06D04F4A2F
:1008A400536823F0F003A1680B435360236813F0EB
:1008B400010F52D06368012B23D0022B28D0474A62
:1008C400126812F0020F00F0828044494A6822F054
:1008D400030213434B6000F08DFE06466368012B50
:1008E4001DD0022B2AD03D4B5B6813F00C0F34D083
:1008F40000F080FE831B41F288329342F3D9032037
:1009040062E0364A126812F4003FDED101205BE057
:10091400324A126812F0007FD7D1012054E02F4BE5
:100924005B6803F00C03042B17D000F063FE831BF9
:1009340041F288329342F2D9032045E0274B5B68A9
:1009440003F00C03082B08D000F054FE801B41F286
:1009540088339842F2D9032036E01F4B1B6803F01A
:100964000703AB420AD91C4A136823F007032B433D
:100974001360136803F00703AB422AD1236813F012
:10098400040F06D0154A536823F4E063E1680B436F
:100994005360236813F0080F07D0104A536823F4F8
:1009A4006053216943EAC1035360FFF727FF0B4BF0
:1009B4005B68C3F303130A4AD35CD840094B18603D
:1009C400002000F0E7FD002070BD0120FCE70120BD
:1009D400FAE70120F8E700BF0020024000100240BF
:1009E4005C73000800000020014B1868704700BFCA
:1009F4000000002008B5FFF7F7FF044B5B68C3F362
:100A04000223034AD35CD84008BD00BF0010024053
:100A14006C73000808B5FFF7E7FF044B5B68C3F38A
:100A2400C223034AD35CD84008BD00BF0010024073
:100A34006C73000830B4036A23F001030362036A91
:100A44004268846924F073040D682C4323F0020C7B
:100A54008B6843EA0C03104DA84203D005F50065EA
:100A6400A84205D123F00803CD682B4323F00403E7
:100A7400094DA84203D005F50065A84205D122F42A
:100A840040724D692A438D692A43426084614A68F1
:100A94004263036230BC7047002C014030B4036AE7
:100AA40023F480730362036A4268C46924F0730CFC
:100AB4000C6844EA0C0523F400738C6843EA0423AD
:100AC400114CA04203D004F50064A04206D123F4E3
:100AD4000063CC6843EA042323F480630A4CA042F5
:100AE40003D004F50064A04207D122F440524C69BB
:100AF40042EA04128C6942EA04124260C5614A68FF
:100B0400C263036230BC7047002C014030B4036AF6
:100B140023F480530362036A4468C26922F4E64200
:100B24000D6842EA052223F400538D6843EA053335
:100B3400094DA84203D005F50065A84204D124F468
:100B440080444D6944EA85144460C2614A68026481
:100B5400036230BC704700BF002C014010B4036A2C
:100B6400046A24F001040462846924F0F00C4CEA61
:100B7400021223F00A030B438261036210BC704724
:100B840010B4046A24F0100404628469036A24F42F
:100B9400704C4CEA023223F0A00343EA0113826151
:100BA400036210BC704710B4846824F47F4C42EA9A
:100BB40003220A4342EA0C02826010BC704710B55B
:100BC4000468A26822F070024B68134323F0070301
:100BD4000A681343A3604B68602B24D009D8402BC8
:100BE40010D0502B0DD10A6989680068FFF7B6FF51
:100BF40007E0702B05D10B698A68C9680068FFF7A4
:100C0400D2FF10BD03681C6A1A6A22F001021A623C
:100C14000268936923F0F003096943EA01139361BD
:100C240003681C62EDE70A6989680068FFF7A8FF9A
:100C3400E7E7704738B590F83C30012B18D00446EC
:100C4400012580F83C50022380F83D30FFF7B7FFC0
:100C54002268D36823F04003D3602268D36823F466
:100C64008043D36084F83D50002084F83C0038BDB4
:100C74000220FCE70368244A904212D002F5006285
:100C840090420ED0B0F1804F0BD0A2F59832904232
:100C940007D002F58062904203D002F58062904250
:100CA40003D123F070034A681343174A904212D0C9
:100CB40002F5006290420ED0B0F1804F0BD0A2F545
:100CC4009832904207D002F58062904203D002F538
:100CD4008062904203D123F44073CA68134323F023
:100CE40080034A69134303608B68C3620B688362A1
:100CF400054B984203D003F50063984201D10B6978
:100D04000363012343617047002C0140B0B110B567
:100D1400044690F83D3063B1022384F83D30214607
:100D240051F8040BFFF7A6FF012384F83D3000209F
:100D340010BD80F83C30FFF77CFFEDE701207047E1
:100D440030B4036A23F010030362036A44688269BF
:100D540022F4E6420D6842EA052223F020038D685E
:100D640043EA0513114DA84203D005F50065A842D6
:100D740006D123F08003CD6843EA051323F0400332
:100D84000A4DA84203D005F50065A84207D124F412
:100D940040644D6944EA85048D6944EA85044460ED
:100DA40082614A688263036230BC7047002C014050
:100DB40038B590F83C30012B66D004460D4601232B
:100DC40080F83C30022380F83D300C2A1AD8DFE842
:100DD40002F007191919201919193419191947009A
:100DE4000068FFF727FE2268936943F008039361C4
:100DF4002268936923F00403936122689369296943
:100E04000B439361012384F83D30002084F83C00B7
:100E140038BD0068FFF794FF2268936943F40063C8
:100E240093612268936923F48063936122689369D0
:100E3400296943EA01239361E4E70068FFF72EFE82
:100E44002268D36943F00803D3612268D36923F08D
:100E54000403D3612268D36929690B43D361D1E7C1
:100E64000068FFF753FE2268D36943F40063D3613B
:100E74002268D36923F48063D3612268D369296922
:100E840043EA0123D361BDE70220C1E7012303FA4A
:100E940001FC036A23EA0C030362036A02FA01F108
:100EA4000B4303627047000010B50446012200683A
:100EB400FFF7ECFF2368094A934203D002F500626E
:100EC400934203D15A6C42F400425A642268136874
:100ED40043F001031360002010BD00BF002C01404B
:100EE400042303FA01FC036A23EA0C030362036A82
:100EF40002FA01F10B430362704710B50446042261
:100F04000068FFF7EDFF2268536C43F40043536419
:100F14002268136843F001031360002010BD90F8A9
:100F24003C30012B25D0012380F83C30CB6823F4DE
:100F340040738A68134323F480634A68134323F499
:100F440000630A68134323F480530A69134323F4A8
:100F540000534A69134323F480438A69134323F4F7
:100F64000043134302685364002380F83C3018465E
:100F740070470220704790F83C30012B22D030B4E7
:100F8400012280F83C20022380F83D300468636825
:100F940023F070036360046863680D682B43636027
:100FA4000468A36823F08003A3600468A368496805
:100FB4000B43A36080F83D20002380F83C301846A2
:100FC40030BC70470220704790F82420012A25D0B5
:100FD4008CB00346012280F82420114A0092026852
:100FE400906810F0010F07D10D48806810F0010FD0
:100FF40002D10C48824209D09A6A42F020029A62D5
:101004000120002283F824200CB07047506820F49B
:1010140070200968014351600020F2E70220704704
:101024000028014000240140074AD36823F4E06308
:101034001B041B0C000200F4E060034343F0BF6395
:1010440043F40033D360704700ED00E000B5194B62
:10105400DB68C3F30223C3F1070CBCF1040F28BF00
:101064004FF0040C03F1040EBEF1060F18D9033B34
:101074004FF0FF3E0EFA0CFC21EA0C0199400EFAE7
:1010840003F322EA0303194300280BDB0901C9B265
:1010940000F1604000F5614080F800135DF804FB46
:1010A4000023E5E700F00F000901C9B2024B19540F
:1010B400F4E700BF00ED00E014ED00E000F01F02D3
:1010C400400901239340024A42F82030704700BF90
:1010D40000E100E00138B0F1807F0BD24FF0E02353
:1010E4005861054AF02182F82310002098610722F4
:1010F4001A6170470120704700ED00E0042806D013
:101104004FF0E022136923F00403136170474FF09A
:10111400E022136943F0040313617047704708B574
:10112400FFF7FCFF08BD0000064B0022DA61064B06
:101134001A6942F004021A611A6942F040021A6103
:10114400704700BFE801002000200240064B002247
:10115400DA61064B1A6942F002021A6158611A698F
:1011640042F040021A617047E8010020002002406A
:10117400264B1B7E012B46D070B505460E46234BED
:1011840001221A760368022B20D04CF25030FFF76C
:10119400ABF890BB4FF0FF333360AC680121EA68D1
:1011A400AB6803EBC223A34228D92046FFF7CEFF46
:1011B4004CF25030FFF798F8154A136923F00203F4
:1011C40013610146B8B904F50064E8E74CF2503005
:1011D400FFF78AF808B1012110E00120FFF7A4FF0E
:1011E4004CF25030FFF780F80146094A136923F0A6
:1011F4000403136102E0346000E00121034B002288
:101204001A76084670BD022108467047E80100209E
:101214000020024070B582B00024A446B0E0874D9F
:10122400AA4210D007D9864DAA420CD005F58035C4
:10123400AA4208D013E0A5F58015AA4203D005F50B
:101244007025AA4207D18A68002A62D0012A5BD09D
:101254004361082403E0A5F58015AA42F3D0BEF14A
:10126400FF0F58D80646BEF1FF0F56D84FEA8C023E
:1012740033680F25954023EA050304FA02F2134369
:1012840033604B6813F0805F78D06E4B9A6942F0FC
:1012940001029A619B6903F001030193019B4FEAE8
:1012A4009C02951C684B53F825600CF003039D00C9
:1012B4000F23AB4026EA0306644B984233D003F570
:1012C4008063984200F0988003F58063984200F0B0
:1012D400958003F58063984200F0928003F5806363
:1012E400984200F08F8003F58063984219D006235A
:1012F4001AE0CC68B3E7CC680434B0E7CC680834AF
:10130400ADE7CC680C34AAE703610824A7E70024FE
:10131400A5E70424A3E7061DA5E7ACF108029200A3
:10132400A6E7052300E00023AB4033430232464DD9
:1013340045F822304B6813F4803F65D0444A136863
:1013440043EA0E0313604B6813F4003F62D0404A33
:10135400536843EA0E0353604B6813F4801F5FD055
:101364003B4A936843EA0E0393604B6813F4001FEF
:101374005CD0374AD36843EA0E03D3600CF1010C06
:10138400BCF10F0F58D8012303FA0CF30A6802EAE0
:10139400030E33EA0202F1D14A68122A3FF63FAF44
:1013A400122A3FF65CAF01A555F822F04B12000853
:1013B400F712000801130008131300086312000851
:1013C4006312000863120008631200086312000825
:1013D4006312000863120008631200086312000815
:1013E4006312000863120008631200086312000805
:1013F400FB12000807130008012395E7022393E773
:10140400032391E704238FE7114A136823EA0E03A9
:10141400136098E70E4A536823EA0E0353609BE770
:101424000B4A936823EA0E0393609EE7084AD36845
:1014340023EA0E03D360A1E702B070BD00002210BE
:10144400000031100010024000000140000801407B
:10145400000401408368194201D001207047002034
:1014640070470AB101617047090401617047C3689C
:101474005940C1607047000070B582B004460368EB
:1014840013F0010F36D03F4BDB6913F0805F49D175
:101494003C4BDA6942F08052DA61DB6903F0805335
:1014A4000193019B0125384B1B6813F4807F3BD0CB
:1014B400344B1B6A13F4407313D0626802F4407215
:1014C4009A420ED02F4A136A23F440702F49012602
:1014D400C1F840640026C1F84064106213F0010FA3
:1014E40036D1284A136A23F4407361680B431362AC
:1014F400002D3ED1236813F0020F06D0214A536811
:1015040023F44043A1680B435360236813F0100F86
:1015140034D01C4A536823F4800361690B4353603D
:1015240000202CE00025BEE7174A136843F48073BB
:10153400136000F05FF80646134B1B6813F4807FBA
:10154400B6D100F057F8801B6428F5D9032016E0C3
:1015540000F050F806460B4B1B6A13F0020FC0D183
:1015640000F048F8801B41F288339842F3D90320F5
:1015740005E0D36923F08053D361BBE7002002B0B8
:1015840070BD00BF001002400070004000004242E5
:101594007047000010B50446074B1868074BA3FBBF
:1015A40000308009FFF796FD002221464FF0FF30FE
:1015B400FFF74CFD002010BD00000020D34D621049
:1015C40008B5074A136843F0100313600320FFF7BC
:1015D4002BFD0020FFF7DEFFFFF7DAFF002008BD38
:1015E40000200240024A136801331360704700BFB1
:1015F40008020020014B1868704700BF0802002051
:1016040030B583B00190FFF7F5FF0546019CB4F1B6
:10161400FF3F00D00134FFF7EDFF401BA042FAD397
:1016240003B030BD7047000030B482B00022019294
:1016340090F82420012A00F091800346012280F8CA
:1016440024204A68062A2DD80468606B02EB8202C3
:10165400053A4FF01F0C0CFA02FC20EA0C000D684E
:1016640005FA02F2024362630A68092A3AD91C683D
:10167400E06802EB42021E3A4FF0070C0CFA02FC3F
:1016840020EA0C008D6805FA02F20243E2600A685F
:10169400103A012A36D90020002283F8242002B00F
:1016A40030BC70470C2A0ED80568286B02EB820206
:1016B400233A1F24944020EA04000C6804FA02F23E
:1016C40002432A63D0E70568E86A02EB8202413AE2
:1016D4001F24944020EA04000C6804FA02F2024336
:1016E400EA62C1E71C68206902EB42024FF0070C72
:1016F4000CFA02FC20EA0C008D6805FA02F202439F
:101704002261C4E71A681648824205D09A6A42F0F8
:1017140020029A620120BFE7906810F4000F1BD1E9
:10172400906840F4000090600A68102A01D00020FC
:10173400B2E70C4A12680C49A1FB0212920C02EBAC
:1017440082025200019202E0019A013A0192019A46
:10175400002AF9D100209FE700209DE702209EE7A0
:10176400002401400000002083DE1B4330B583B019
:101774000023019303689A6812F0010F2ED10446E6
:101784009A6842F001029A60164B1B68164AA2FB43
:1017940003239B0C019302E0019B013B0193019BFA
:1017A400002BF9D1FFF726FF054623689B6813F049
:1017B400010F11D1FFF71EFF431B022BF5D9A36ABA
:1017C40043F01003A362E36A43F00103E3620023DE
:1017D40084F82430012002E0002000E0002003B05F
:1017E40030BD00BF0000002083DE1B4390F824308E
:1017F400012B68D010B50446012380F82430FFF78C
:10180400B5FF00285BD1A36A23F4407323F00103DE
:1018140043F48073A36223682C4A934227D0A26ABC
:1018240022F48012A2625A6812F4806F05D0A26A70
:1018340022F4405242F48052A262A26A12F4805FFF
:101844002BD0E26A22F00602E262002284F824200D
:101854006FF002021A6023689A6802F46022B2F5FB
:10186400602F1DD09A6842F480129A602AE0A2F593
:101874008062526812F4702FD1D0A26A42F48012AE
:10188400A262134A526812F4806FD6D0A26A22F47C
:10189400405242F48052A262CFE70022E262D4E7CF
:1018A4000A4A934204D09A6842F4A0029A6009E07A
:1018B400A2F58062526812F4702FD3D1F3E70023AB
:1018C40084F8243010BD0220704700BF0028014076
:1018D4000024014038B503689A6812F0010F01D161
:1018E400002038BD04469A6822F001029A60FFF78E
:1018F40081FE054623689B6813F0010F0ED0FFF7A5
:1019040079FE431B022BF5D9A36A43F01003A362AB
:10191400E36A43F00103E3620120E2E70020E0E729
:10192400002800F08680F8B50446836A002B50D066
:101934002046FFF7CFFFA36A13F0100373D10028EA
:1019440071D1A26A22F4885222F0020242F0020209
:10195400A2626268266838498E4240D0E1690A432F
:10196400E16842EA4102A568B5F5807F02D0012D05
:101974003CD01D466769012F3BD0716821F4694151
:10198400294371602568AE682C4931401143A96030
:10199400A168B1F5807F01D0012902D12369013BFF
:1019A4001B052568E96A21F470010B43EB62236887
:1019B4009968234B0B409A422CD0A36A23F012035C
:1019C40043F01003A362E36A43F00103E3620120DE
:1019D4002EE0C36280F82430FFF724FEA8E7E16913
:1019E400B1F5402FBBD14FF40021B8E74FF4807517
:1019F400C0E731B9A169013945EA413141F40065D3
:101A0400BBE7A16A41F02001A162E16A41F0010152
:101A1400E162B2E70023E362A36A23F0030343F025
:101A24000103A36204E0A36A43F01003A36201204C
:101A3400F8BD0120704700BF003C0140FDF7E1FF05
:101A4400FE0E1FFF0268D36823F0C003D360202377
:101A540080F8393070470268D36823F49073D360F8
:101A64000268536923F001035361202380F83A305C
:101A7400704790F83930DBB2212B01D00220704737
:101A84008368B3F5805F17D0036A5A1C02621A7820
:101A940003685A60C38C9BB2013B9BB2C3844BB9AD
:101AA4000268D36823F08003D3600268D36843F0EC
:101AB4004003D36000207047036A1B880268C3F3A5
:101AC4000803536003691BB9036A02330362E1E745
:101AD400036A01330362DDE72DE9F041044602683D
:101AE400136923F44053C1680B431361836802698B
:101AF4001343426913430168CA6822F4B05222F0C6
:101B04000C021343CB600268536923F44073816968
:101B14000B4353610268574B9A4255D0FEF76AFF54
:101B240000EB800000EB80006568AD00B0FBF5F5CC
:101B3400514FA7FB05356D092E01FEF75BFF00EB46
:101B4400800000EB80006568AD00B0FBF5F5FEF7A2
:101B540051FF00EB800000EB800063689B00B0FB4A
:101B6400F3F3A7FB03235B094FF0640808FB13534B
:101B74001B013233A7FB03235B0903F0F003F518C1
:101B8400FEF738FF00EB800000EB80006668B600CB
:101B9400B0FBF6F6FEF72EFF00EB800000EB8000B2
:101BA40063689B00B0FBF3F0A7FB0030400908FB1F
:101BB400106000013230A7FB0037C7F343172368D6
:101BC4002F449F60BDE8F081FEF724FF00EB800006
:101BD40000EB80006568AD00B0FBF5F5264FA7FB70
:101BE40005356D092E01FEF715FF00EB800000EBB3
:101BF40080006568AD00B0FBF5F5FEF70BFF00EB68
:101C0400800000EB800063689B00B0FBF3F3A7FB4C
:101C140003235B094FF0640808FB13531B013233A1
:101C2400A7FB03235B0903F0F003F518FEF7F2FEAC
:101C340000EB800000EB80006668B600B0FBF6F6AF
:101C4400FEF7E8FE00EB800000EB800063689B0079
:101C5400B0FBF3F0A7FB0030400908FB1060000163
:101C64003230A7FB0037C7F3431723682F449F6024
:101C7400A8E700BF003801401F85EB5158B310B5E9
:101C8400044690F839300BB3242384F839302268A1
:101C9400D36823F40053D3602046FFF71DFF226866
:101CA400136923F4904313612268536923F02A03D0
:101CB40053612268D36843F40053D3600020E06387
:101CC400202384F8393084F83A3010BD80F8383055
:101CD40000F02AFDD8E701207047000038B590F8DD
:101CE4003930DBB2202B31D10446002930D0002A10
:101CF40030D090F83830012B2ED0012380F83830C2
:101D040001628284C2840025C563212380F83930AE
:101D1400036B12489862236B1148D862236B1148F5
:101D24001863236B5D6320681346021D206B00F06B
:101D34003BFA23686FF040021A6084F83850226836
:101D4400536943F080035361284600E0022038BD04
:101D54000120FCE70120FAE70220F8E7171E00083B
:101D6400631E0008591F000830B583B0044690F87C
:101D74003A00C0B220283CD100293DD0002A3DD0F1
:101D840094F83830012B3BD0012384F83830A16219
:101D9400A2850025E563222384F83A30636B194851
:101DA4009862636B1848D862636B18481863636B56
:101DB4005D63206813460A46011D606B00F0F4F968
:101DC400019523681A6801925A680192019A84F86D
:101DD4003850DA6842F48072DA602268536943F05A
:101DE400010353612268536943F040035361284659
:101DF40000E0022003B030BD0120FBE70120F9E739
:101E04000220F7E76F1E00084D1F0008591F000845
:101E1400704708B50346406A1B681B6813F0200F1F
:101E24000CD10023C3840268536923F080035361F7
:101E34000268D36843F04003D36008BDFFF7E8FFAE
:101E4400FBE708B50168CA6822F04002CA60202294
:101E540080F83920FFF7DCFF002008BD704708B583
:101E6400406AFFF7FBFF08BD704708B50346406AA8
:101E74001B681B6813F0200F13D10023C38502686D
:101E8400D36823F48073D3600268536923F0010399
:101E940053610268536923F040035361202380F89F
:101EA4003A30FFF7E1FF08BD08B590F83A30DBB2ED
:101EB400222B46D18368B3F5805F0FD003690BBB37
:101EC40003685A68836A591C81621A70C38D9BB275
:101ED400013B9BB2C385F3B1002008BD826A03694C
:101EE40043B903685B68C3F308031380836A02334E
:101EF4008362EBE703685B68DBB21380836A0133B8
:101F04008362E3E703685B68826A511C816203F0C1
:101F14007F031370DAE70268D36823F02003D360E9
:101F24000268D36823F48073D3600268536923F092
:101F340001035361202380F83A30FFF795FF002016
:101F4400CBE70220C9E7704708B5406AFFF7FBFFFB
:101F540008BD704710B5446A23685A6994F839304B
:101F6400DBB2212B10D023685A6902F0400294F8A6
:101F74003A30DBB2222B11D0E36B43F01003E3635E
:101F84002046FFF7E6FF10BD02F08002002AEAD0E7
:101F94000023E3842046FFF755FDE4E7002AEBD055
:101FA4000023E3852046FFF756FDE5E710B5044618
:101FB40002681368D168526913F00F0005D113F059
:101FC400200F02D011F0200F13D128B112F001021A
:101FD40013D111F4907F10D113F0800F02D011F0BF
:101FE400800F69D113F0400F02D011F0400F67D178
:101FF40010BD2046FFF758FFFAE713F0010F06D093
:1020040011F4807F03D0E06B40F00100E06313F033
:10201400040F04D01AB1E06B40F00200E06313F047
:10202400020F04D01AB1E06B40F00400E06313F037
:10203400080F04D01AB1E26B42F00802E263E26BCB
:10204400002AD5D013F0200F02D011F0200F21D197
:1020540023685B6903F04003E26B12F0080F00D1C0
:1020640023B32046FFF7F7FC23685A6912F0400FA8
:1020740018D05A6922F040025A61636B73B1124A54
:102084005A63606B00F0CAF80028B1D0606B436BF0
:102094009847ADE72046FFF707FFD9E72046FFF74B
:1020A40058FFA5E72046FFF754FFA1E72046FFF7B6
:1020B40050FF0023E3639BE72046FFF7DAFC97E732
:1020C4002046FFF7BEFE93E7D120000808B5406A1A
:1020D4000023C385C384FFF73CFF08BD30B401244B
:1020E400056CAC40C56B6C60046863604368102B7E
:1020F40005D0036899600368DA6030BC70470368F0
:102104009A600368D960F8E700283ED010B403460B
:1021140000681F4A90422DD81E4A02441E49A1FB62
:102124000212120992001A641C4ADA63022283F82A
:102134002120016821F47F5121F030015A689C6804
:102144002243DC6822431C6922435C6922439C6964
:102154002243DC6922430A43026000209862D86269
:10216400186358639863012283F8212083F82000C0
:1021740010BC70470A4A02440749A1FB0212120923
:1021840092001A64074ADA63D0E70120704700BF5F
:1021940007040240F8FFFDBFCDCCCCCC00000240C8
:1021A400F8FBFDBF0004024038B5044690F8200057
:1021B400012831D0012084F8200094F8210001285E
:1021C40004D0002384F82030022038BD022084F893
:1021D40021000020A0632568286820F00100286001
:1021E4002046FFF77BFFE36A5BB12268136843F084
:1021F4000E0313602268136843F001031360002088
:10220400E3E72268136823F0040313602268136869
:1022140043F00A031360EDE70220D6E708B590F80F
:102224002130022B03D004238363012008BD0268FC
:10223400136823F00E0313600268136823F001038C
:10224400136003684B4A93424ED9783A934224D0A0
:102254001432934230D0143293422FD0143293422A
:102264002FD0143293422FD0143293422FD01432F1
:1022740093422FD002F5627293422ED014329342CD
:102284002DD0143293422CD01432934202D04FF406
:10229400803203E04FF4805200E00122364B5A6052
:1022A400012380F82130002380F82030436B002B79
:1022B4005ED098470020B9E71022EFE74FF4807210
:1022C400ECE74FF48052E9E74FF48032E6E74FF44D
:1022D4008012E3E74FF08072E0E70122DEE710228C
:1022E400DCE74FF48072D9E7244A934224D01432B5
:1022F400934225D01432934224D01432934224D0F2
:102304001432934224D01432934224D01432934290
:1023140024D002F56272934223D01432934222D025
:102324001432934221D01432934202D04FF48032BB
:1023340003E04FF4805200E00122114B5A60AFE7F2
:102344001022FAE74FF48072F7E74FF48052F4E773
:102354004FF48032F1E74FF48012EEE74FF08072D1
:10236400EBE70122E9E71022E7E74FF48072E4E7A4
:1023740000205BE7800002400004024008000240A5
:102384000000024038B5C36B1A6804682568016C04
:1023940004238B40134200F09B8015F0040F00F0DF
:1023A4009780236813F0200F03D1236823F00403DC
:1023B400236003689A4A934246D9783A934224D0D8
:1023C4001432934228D01432934227D014329342C9
:1023D40027D01432934227D01432934227D0143298
:1023E400934227D002F56272934226D0143293426C
:1023F40025D01432934224D01432934202D04FF4A5
:10240400802203E04FF4804200E00422854B5A60AE
:10241400C36A03B1984738BD4022F7E74FF480629E
:10242400F4E74FF48042F1E74FF48022EEE74FF4F3
:102434008002EBE74FF08062E8E70422E6E74022FF
:10244400E4E74FF48062E1E7774A934224D0143200
:10245400934225D01432934224D01432934224D090
:102464001432934224D01432934224D0143293422F
:1024740024D002F56272934223D01432934222D0C4
:102484001432934221D01432934202D04FF480226A
:1024940003E04FF4804200E00422644B5A60B7E743
:1024A4004022FAE74FF48062F7E74FF48042F4E702
:1024B4004FF48022F1E74FF48002EEE74FF08062A0
:1024C400EBE70422E9E74022E7E74FF48062E4E720
:1024D40002238B40134200F0AB8015F0020F00F092
:1024E400A780236813F0200F06D1236823F00A0382
:1024F4002360012380F821300368494A93424BD971
:10250400783A934224D0143293422DD01432934219
:102514002CD0143293422CD0143293422CD0143247
:1025240093422CD0143293422CD002F5627293421F
:102534002BD0143293422AD01432934229D014322D
:10254400934202D04FF4003203E04FF4005200E013
:102554000222344B5A60002380F82030836A002B17
:102564003FF459AF984756E72022F2E74FF4007240
:10257400EFE74FF40052ECE74FF40032E9E74FF491
:102584000012E6E74FF00072E3E70222E1E72022BF
:10259400DFE74FF40072DCE7234A934224D014327D
:1025A400934225D01432934224D01432934224D03F
:1025B4001432934224D01432934224D014329342DE
:1025C40024D002F56272934223D01432934222D073
:1025D4001432934221D01432934202D04FF4003289
:1025E40003E04FF4005200E00222104B5A60B2E7BD
:1025F4002022FAE74FF40072F7E74FF40052F4E7B1
:102604004FF40032F1E74FF40012EEE74FF000729E
:10261400EBE70222E9E72022E7E74FF40072E4E760
:102624008000024000040240080002400000024012
:10263400082303FA01F111423FF4EDAE15F0080F3F
:102644003FF4E9AE236823F00E032360026CC16BF0
:10265400012303FA02F24A60836380F821300023E5
:1026640080F82030036B002B3FF4D5AE9847D2E6B8
:102674000F4B1A6842F001021A6059680D4A0A4069
:102684005A601A6822F0847222F480321A601A683E
:1026940022F480221A605A6822F4FE025A604FF42F
:1026A4001F029A60044B4FF000629A60704700BFAB
:1026B400001002400000FFF800ED00E000B583B018
:1026C400164B5A6942F001025A615B6903F0010337
:1026D4000193019B002211461020FEF7B7FC102045
:1026E400FEF7ECFC002211461120FEF7AFFC11208E
:1026F400FEF7E4FC0A480B4B03604FF4E1334360FC
:1027040000238360C36003610C2242618361C3615F
:10271400FFF7B4FA03B05DF804FB00BF00100240F9
:102724001004002000440040F0B589B004460023A2
:10273400049305930693079303685C4A934204D079
:102744005B4A934258D009B0F0BD5A4BDA6942F45F
:102754000032DA61DA6902F400320092009A9A696E
:1027640042F004029A619B6903F004030193019B04
:102774000423049302230593032307934E4E04A9D1
:102784003046FEF747FD08230493002505950123F1
:10279400069304A93046FEF73DFD484E484B33608E
:1027A4007560B5608027F760356175612023B3617A
:1027B400F5613046FFF7A8FC66637462414E424BF4
:1027C400336010237360B560F76035617561B5617E
:1027D400F5613046FFF798FC266374622A46294661
:1027E4002620FEF733FC2620FEF768FC2268D36817
:1027F40043F01003D360A6E72E4BDA6942F480223B
:10280400DA61DA6902F480220292029A9A6942F049
:1028140008029A619B6903F008030393039B4FF436
:10282400806304930223059303230793274E04A98B
:102834003046FEF7EFFC4FF4006304930025059542
:102844000123069304A93046FEF7E4FC204E214BF5
:1028540033607560B5608027F7603561756120234A
:10286400B361F5613046FFF74FFC666374621A4E3C
:102874001A4B336010237360B560F760356175617E
:10288400B561F5613046FFF73FFC266374622A4662
:1028940029462720FEF7DAFB2720FEF70FFC2268E3
:1028A400D36843F01003D3604DE700BF00440040F9
:1028B400004800400010024000080140800200204F
:1028C4006C000240C402002080000240000C014061
:1028D40008030020300002404C0300201C0002408A
:1028E4002DE9F04F89B0864B9A6942F004029A614F
:1028F4009A6902F004020192019A9A6942F008026C
:102904009A619A6902F008020292029A9A6942F064
:1029140010029A619B6903F010030393039B4FF029
:102924000009CDF81490CDF81890022707974FF0BE
:10293400200ACDF810A0734E04A93046FEF76AFCB5
:102944004023049304A93046FEF764FC4FF0800B47
:10295400CDF810B004A93046FEF75CFC4FF4806259
:102964000492694C04A92046FEF754FC4FF400631A
:10297400049304A92046FEF74DFC4FF480550495BA
:1029840004A92046FEF746FC4FF00108CDF8188054
:10299400049505F1804505F5784504A92846FEF718
:1029A40039FCCDF81890049704A92846FEF732FCA8
:1029B400CDF814804FF00409CDF8109004A93046E6
:1029C400FEF728FC102104910DEB01000146284676
:1029D400FEF720FCCDF810A004A801462846FEF717
:1029E40019FC03230593CDF8108004A80146204662
:1029F400FEF710FCCDF8108004A801462846FEF727
:102A040009FC082004900DF1100C61462046FEF7E5
:102A140001FC04970DF1100C61462046FEF7FAFB09
:102A24001021049169442046FEF7F4FBCDF810A070
:102A340004A92046FEF7EEFBCDF8109004A9204629
:102A4400FEF7E8FB0820049004A92846FEF7E2FB01
:102A5400CDF8109004A92846FEF7DCFB0597402327
:102A6400049304A92046FEF7D5FBCDF810B004A9C1
:102A74002046FEF7CFFB4FF48079CDF8109004A9DF
:102A84002046FEF7C7FBCDF810B004A92846FEF790
:102A9400C1FBCDF8108004A93046FEF7BBFB0497B8
:102AA40004A93046FEF7B6FBCDF8109004A92846D9
:102AB400FEF7B0FB4FF40073049304A92846FEF715
:102AC400A9FB4FF48062049204A92846FEF7A2FBF6
:102AD4004FF40053049304A93046FEF79BFB4FF4D4
:102AE4008043049304A93046FEF794FB4FF400435B
:102AF400049304A93046FEF78DFB09B0BDE8F08FBE
:102B040000100240000C0140001001402DE9F04F7C
:102B140099B07B4B9A6942F400629A619A6902F413
:102B240000620192019A9A6942F400529A619B6987
:102B340003F400530293029B724EDFF8CC91C6F863
:102B44000090002474604FF0200AC6F808A04FF4E7
:102B5400FA6BC6F80CB034617461B4613046FEF7A8
:102B6400D5F810231693179416A93046FEF703FAE6
:102B740060230F93109411940827129713941494BC
:102B84004FF40072159222460FA93046FEF710F951
:102B940004220FA93046FEF70BF93A460FA9304636
:102BA400FEF706F94FF4006108914FF48060099034
:102BB4000A9430250B950C940D940E940DEB0A0C8D
:102BC40061463046FEF7ABF9504DDFF84481C5F855
:102BD40000806C60C5F808A0C5F80CB02C616C616D
:102BE400AC612846FEF792F8CDF858A080231793DD
:102BF4000DF1580C61462846FEF7BDF904940523EF
:102C0400039303A92846FEF715F85023C8F8243087
:102C140060230F93109411941297139414944FF407
:102C24000072159222460DF13C0C61462846FEF7CF
:102C3400BFF804220DF13C0C61462846FEF7B8F8B3
:102C44003A460DF13C0C61462846FEF7B1F84FF4C4
:102C5400006108914FF4806009900A9430230B932B
:102C64000C940D940E940DEB0A012846FEF757F9C7
:102C7400D8F8443023F40043C8F84430D9F8443039
:102C840023F40043C9F8443021462846FEF70CF9E2
:102C940004212846FEF708F939462846FEF704F9C8
:102CA40021462846FEF729F904212846FEF725F98E
:102CB40039462846FEF721F921463046FEF7F4F856
:102CC40004213046FEF7F0F839463046FEF7ECF8BA
:102CD40021463046FEF711F904213046FEF70DF97E
:102CE40039463046FEF709F92B6801221A63326827
:102CF400136843F00103136019B0BDE8F08F00BFFF
:102D040000100240D0030020002C0140900300205A
:102D1400003401402DE9F04387B0434EB36943F4D6
:102D24000073B361B36903F400730093009B3F4CD9
:102D34003F4B23604FF48073A3600025E560656119
:102D44004FF44023E36165604FF00508C4F8108038
:102D54002046FEF7E5FD374A536843F48023536069
:102D64004FF4C023059305A92046FEF72DF90495D9
:102D74000B2702974FF00109CDF80C9002A92046C9
:102D8400FEF752FCCDF8109002950223039302A99A
:102D94002046FEF749FC0E2302930323039302A962
:102DA4002046FEF741FC0C2302930423039302A95B
:102DB4002046FEF739FC0723049310230293CDF831
:102DC4000C8002A92046FEF72FFC2268936843F486
:102DD400000343F480739360936843EA09039360A8
:102DE400736943EA09037361736903EA090301938D
:102DF400019B114B9D60C3F80C80104A1A61104A64
:102E04005A6140F6A2229A609A6842EA09029A60DC
:102E14002A4629463846FEF719F93846FEF74EF990
:102E240007B0BDE8F08300BF00100240200200207C
:102E34000024014000000140000002404C240140F5
:102E44000C020020F0B585B0274B9A6942F48062E9
:102E54009A619B6903F480630093009B234C244B89
:102E640023604FF48073A3600025E56065614FF42F
:102E74006023E3616560052626612046FEF750FD68
:102E840003950A2301930125029501A92046FEF723
:102E9400CBFB03950D2301930227029701A920463A
:102EA400FEF7C2FB0F2301930325029501A92046D7
:102EB400FEF7BAFB0197042302930DEB03012046AE
:102EC400FEF7B2FB0195029601A92046FEF7ACFB82
:102ED40023689A6842F480729A609A6842F0010208
:102EE4009A6005B0F0BD00BF0010024050020020FF
:102EF4000028014070B5204C002384F8FB3084F88E
:102F0400FA30022284F8F920012684F8FD6042F6A2
:102F1400E062A4F8CE204FF47A51A4F8DA1084F8D1
:102F2400FE304FF47A63A4F8D0304FF4C873A4F899
:102F3400CC30A4F8E010A4F8E220104D4FF48072D5
:102F44002146284603F00AFA85F8FA600C48046022
:102F54000C4BC3600C4B43600C4B83600C4C2560E2
:102F64000C4BE3600C4B63600C4BA36003F04CF917
:102F7400204603F049F970BD60000020E8050020F8
:102F8400C805002070040020E8060020080700207F
:102F9400D80500201C050020F80600201807002092
:102FA4000C4B93F8FE301BB90B4B93F8FE3043B136
:102FB4000A4B4FF47A721A80094B4FF618421A8062
:102FC4007047064B4FF47A721A80054B4FF618423D
:102FD4001A80704760000020E80500205204002099
:102FE400540400200268D36823F48073D360026819
:102FF400536923F0010353617047000010B5084B77
:1030040000221A70082405E0064B1C706420FEF7A9
:10301400F7FA013C002CF7DA024B00221A7010BDBB
:10302400B7070020B8070020034B1870034B197032
:10303400034B1A70704700BFB7070020B807002081
:10304400BA07002038B50025044B1D70044C2070CD
:103054004FF4FA70FEF7D4FA257038BDB707002094
:10306400B807002038B50025044B1D70044C2070AF
:103074006420FEF7C5FA257038BD00BFB7070020ED
:10308400B80700200B4A002313800B4BB3F9081038
:103094008BB21180094909895B1A1BB2138003EBB7
:1030A400D3735B101380002BB8BF5B42044A1380B8
:1030B400704700BF68070020080700201807002099
:1030C4006A07002010B5154B83FB00C44FEAE07E6D
:1030D400CEEBA41E83FB02434FEAE27CCCEBA313AA
:1030E4009E4512D00D4C84FB01C44FEAE17CCCEB2D
:1030F400A41C63450BD090420BDC8A420BDBE645F3
:1031040001D0022002E0012000E0002010BD0020D8
:10311400FCE70020FAE70020F8E700BF1F85EB5129
:103124002DE9F04788B0FFF7C9FA854C402285495C
:103134002046FEF719FE2046FFF754FFFDF7B6F8C8
:1031440001F01AFB0DF11E017F4B188801F0EEFA15
:10315400BDF81E2041F202039A4201D00025CBE0C3
:10316400794E07A9708801F0E1FABDF91C30774D5A
:10317400A5F8CE30764CA4F8CE3007A9B08801F07B
:10318400D5FABDF91C30A5F8DA30A4F8DA300026F7
:10319400002E40F0B380F400E31CDFF8AC8107A9F3
:1031A40038F8130001F0C2FA9DF81C30A21B694DD7
:1031B40005EB42052B71231D07A938F8130001F014
:1031C400B5FABDF91C30EB80631D07A938F813006C
:1031D40001F0ACFABDF91C302B81A31D07A938F806
:1031E400130001F0A3FABDF91C306B81E31D07A99C
:1031F40038F8130001F09AFA9DF81C30DFF8589162
:10320400A71B09EB47073B7106F1010A4FEACA0302
:1032140007A938F8130001F089FABDF91C30FB80C6
:1032240004F1090307A938F8130001F07FFABDF986
:103234001C303B8104F10A0307A938F8130001F09C
:1032440075FABDF91C307B81B5F90A203979B7F9D3
:103254000600B7F908400493039402900191009288
:10326400B5F90830B5F9062029793C4803F08CF803
:103274005FFA8AF68CE72C46C5EBC503354A02EBA8
:1032840043035B79032B3ED0C5EBC502314901EB07
:1032940042021371C4EBC4032F4A02EB43035B796C
:1032A400032B3ED0C4EBC4022B4901EB4202137141
:1032B400C4EBC403274901EB4301B1F90A00264AD0
:1032C40002EB43031E79B3F90670B3F90830C4EB7B
:1032D400C40402EB4404B4F90A2004920393029751
:1032E40001960090B1F90830B1F9062009791B481C
:1032F40003F04AF80135EDB2002DBCD0FCF7EAFF2B
:1033040008B0BDE8F087C5EBC50602EB4606B6F982
:103314000A20B6F90810B6F90600FFF7D3FE30719B
:10332400B8E7C4EBC40602EB4606B6F90A20B6F9C0
:103334000810B6F90600FFF7C5FE3071B8E700BF04
:10334400100400202807002004000020E8050020C5
:10335400600000202C0000203C0000207473000852
:1033640090F804C0BCF1010F05D0BCF1020F17D0D6
:10337400002343807047B0F90030B0F906C0A3EBD6
:103384000C0302FB03F3B0F90A10A1EB0C0193FB4D
:10339400F1F39A4202DB23EAE37212B242807047ED
:1033A40030B5B0F90030B0F908C0B0F90CE0ACEBBE
:1033B4000E04A34206DD0CEB0E05AB4202DA002339
:1033C400438012E0634511DDF444A3EB0C0302FBDC
:1033D40003F3B0F90A10A1EB0C0C93FBFCF39A4233
:1033E40002DB23EAE37212B2428030BD1B1B01FBF5
:1033F40003F3B0F90620141B93FBF4F3002B02DD56
:1034040000214180F1E79942B8BF194609B2F8E7B3
:10341400094B1B787BB9094AB2F902C0C3EBC3005C
:103424004100074820F801C0B2F90410C3EBC303FC
:103434005A00044B99527047690400205804002034
:103444002C0000203C00002008B51E4A1388591C9B
:1034540011809F2B05D91C4B01221A70194BA022F5
:103464001A80194B1B78194A1370194A12781AB921
:1034740013B9184B1B78C3B10022174B1A70174BA2
:103484001B78C3EBC3014800154901444A80154B1E
:1034940003445A80114B1B7813B1134A12784AB172
:1034A40013B9114B1B784BB908BD104B1A780A4B52
:1034B4001A70EFE70820FFF7D5FDF5E71220FFF7B4
:1034C400D1FDF1E74A0000206E0700206D070020BF
:1034D4006C070020500400202A000020690400200A
:1034E4002C0000203C0000206A0400202B00002057
:1034F40070B5FFF78DFF0F4E33780F4D0F4CC3EBB4
:10350400C3035800B5F90020B4F900100C4B18445B
:10351400FFF726FF3378C3EBC3035800B5F9002047
:10352400B4F90010074B1844FFF71AFFFFF78CFF9C
:1035340070BD00BF69040020520400205404002020
:103544002C0000203C00002003884AF6CD3C634553
:1035540000D070471BB2B0F902C083EA0C03B0F983
:1035640004C083EA0C039BB2B0F806C09C45F0D1BA
:10357400D0F800C04368C1F800C04B60022AE8D10B
:103584000023024A1370024A1380E2E76E07002008
:103594004A00002038B51F4B5B6B1B685C68C4F1A4
:1035A40040041D4B1B68A34208D002D2E21A082A29
:1035B40009D0C3F140052A19082A13D0164B1C6000
:1035C400402C23D038BD154901EB030C144D2A4679
:1035D400C858DCF8041003C2022212492846FFF737
:1035E400B3FFEBE72A460D4919440D4802F0B6FE35
:1035F4002CB902220B490A48FFF7A6FFDEE7224650
:1036040006490748284402F0A9FEF2E700221A609E
:10361400D8E700BF100400206C0400202807002015
:103624006004002058040020704700002DE9F8438E
:10363400374B1B7813B9374B1B78C3B1FCF736FEF5
:10364400354C41F20201208801F024FA334DB5F9DA
:10365400CE1089B2608801F01DFAB5F9DA1089B28A
:10366400A08801F017FA00251DB1FCF733FEBDE870
:10367400F883EC00E01C621B5300294F1F44264EC4
:10368400397936F8100001F005FA231DB7F9061050
:1036940089B236F8130001F0FDF9631DB7F908107B
:1036A40089B236F8130001F0F5F9A31DB7F90A1031
:1036B40089B236F8130001F0EDF9E21DDFF86480F9
:1036C400631B5F004744397936F8120001F0E2F9D0
:1036D40005F101094FEAC903B7F9061089B236F8B2
:1036E400130001F0D7F904F10903B7F9081089B2FE
:1036F40036F8130001F0CEF904F10A02B7F90A1002
:1037040089B236F8120001F0C5F95FFA89F5ABE722
:103714006B040020680400200400002060000020E6
:103724002C0000203C00002010B500240B4B1C7022
:103734000B4B1C700B4B1C7005E00B4B1C70642076
:10374400FDF75EFF0134072CF7DDFFF76FFF002262
:1037540020210648FDF785FEFEE700BFCC070020C8
:10376400B7070020BA070020B8070020000801406E
:1037740010B414682313C3EB00104FEAE07CA1FBE0
:10378400000301FB0C31000940EA01700911B0F19A
:10379400004F71F1000308DA0346B0F1004F71F1F4
:1037A400FF3104DA4FF0004301E06FF000431C44A2
:1037B400146010BC704700002DE9F04F83B0FFF790
:1037C40061FC514BB3F90030052B02DD03B0BDE8B9
:1037D400F08FFFF71DFE4D4B1B78C3EBC3014C4A22
:1037E40032F91120120401924A4A32F911301B04B1
:1037F40000934FF00009484DCA4647F6FF762F461E
:10380400CB46B0462FE0FFF703FEDFF8009199F8AE
:103814000030C3EBC30301AA41F699113C4830F9C7
:103824001300FFF7A5FF99F80030C3EBC3036A4602
:1038340041F69911374830F91300FFF799FFBDF9A4
:1038440006B0BDF902A0D845A8BFD8465F45B8BFA9
:103854005F465645A8BF56465545B8BF5546052050
:10386400FDF7CEFEA14602212C48FDF7F3FD28B951
:1038740009F10104A4B2B9F57A6FC4D33A465946A2
:103884004046FFF71FFC5FFA80F9204B1C78C4EB1D
:10389400C4021F4B03EB42035B794B4503D0032B5C
:1038A40001D04FF000092A4651463046FFF70AFC82
:1038B400C0B2C4EBC403174A02EB43035B798342EF
:1038C40002D0032B00D00020B9F1000F02D1002850
:1038D4003FF47CAFC4EBC4020D4B03EB420383F80B
:1038E4000490A3F80680A3F808B05F81094AC4EBEA
:1038F400C40302EB43031871DE80A3F808A05D81C2
:10390400074B01221A7061E76A070020690400204E
:103914002C0000203C0000200080FFFF0008014034
:103924006B04002030B583B0FFF7ACFB514BB3F907
:103934000030052B00F396804F4B1B78C3EBC3017B
:103944004E4A32F91120120401924D4A32F91130D3
:103954001B04009300244B4B1C701CE0FFF758FD24
:10396400454C2378C3EBC30301AA41F6991143489C
:1039740030F91300FFF7FCFE2378C3EBC3036A4658
:1039840041F699113E4830F91300FFF7F1FE052086
:10399400FDF736FE2C4602213B48FDF75BFD20B9BE
:1039A400631C9DB2B4F5FA6FD8D3334B1B78C3EBC9
:1039B400C302324901EB4201B1F90600019AA2EBBC
:1039C4000042B1F90A10091A92FBF1F2B2F5803FF4
:1039D4004ADA41F699118A42B8BF0A4694B2C3EB57
:1039E400C301274800EB4101B1F90600009AA2EB9C
:1039F4000042B1F90A10091A92FBF1F2B2F5803FC4
:103A040035DA40F6CC418A42B8BF0A4691B2C3EBDC
:103A1400C3021A4800EB420212796AB140F2EE2264
:103A240004FB02F212131948A0F8CE201848A0F89B
:103A3400CE20144A01201070C3EBC303104A02EBDA
:103A440043031B7973B14FF47A7303FB01F213132D
:103A54000E4AA2F8DA300E4AA2F8DA30094A13788C
:103A64000233137003B030BD4FF6FF74B7E74FF65F
:103A7400FF71CCE76A070020690400202C000020B5
:103A84003C0000206804002000080140E8050020F4
:103A94006000002038B502212448FDF7DBFC90B912
:103AA40038BD254602212148FDF7D4FC68B10A201F
:103AB400FDF7A6FD6C1CA4B2B5F5FA7FF1D1052083
:103AC400FFF7D0FAEDE70025ECE7082D02D9184BF3
:103AD40000221A70B5F5FA7F03D2082DE0D9FFF75A
:103AE40023FE4FF47A70FDF78BFD02210F48FDF79A
:103AF400B1FC58B91020FFF7A5FAFFF75DFE0520C9
:103B0400FFF7B0FACCE70A20FDF77AFD0221074857
:103B1400FDF7A0FC0028F6D10820FFF793FAFFF781
:103B240001FF0520FFF79EFABAE700BF0008014035
:103B3400CC07002003019BB210881B1A1BB28B42D6
:103B440004DC494209B28B4200DB1946014411806E
:103B54007047000010B54FEA610EA0EB6101B1F5AA
:103B6400004F26DA174CA142B8BF21460911118033
:103B7400154CB4F900C061451EDC144CB4F9004086
:103B8400A142B8BF214611807044B0F5004F15DA48
:103B94000C4A9042B8BF104602111A80944505DBC6
:103BA4000A49B1F900C09445B8BF9446A3F800C0CF
:103BB40010BD47F6FF71D9E76146E4E747F6FF70A9
:103BC400EAE700BF0080FFFF5204002054040020F5
:103BD40030B597B002250C9501231093102311934F
:103BE4001395002414944FF4601315930CA8FCF758
:103BF40015FC0F230793089509944FF480630A93E7
:103C04000B94294607A8FCF731FE01954FF4804335
:103C1400039301A8FDF730FCFCF7E6FE084BA3FB79
:103C240000308009FDF756FA0420FDF767FA2246B2
:103C340021464FF0FF30FDF709FA17B030BD00BF41
:103C4400D34D6210F0B583B0FDF7BAFC364CA369CE
:103C540043F00103A361A36903F001030093009BF4
:103C64000320FDF7E1F9002211466FF00B00FDF788
:103C7400EDF9002211466FF00A00FDF7E7F9002282
:103C840011466FF00900FDF7E1F9002211466FF0CB
:103C94000400FDF7DBF9002211466FF00300FDF785
:103CA400D5F9002211466FF00100FDF7CFF900228B
:103CB40011464FF0FF30FDF7C9F9FFF789FF63693B
:103CC40023F001036361FEF70BFEFEF71FFFFFF70E
:103CD40021F8FFF7B7F8FFF70DF901222021134867
:103CE400FDF7BFFBFFF75CF9FFF71AFA1048FDF781
:103CF4007DFD1048FDF77AFDFFF780F901220421CC
:103D04000D48FDF7AEFB0D4A138A1B040193138A79
:103D140002E00A20FDF774FC02210448FDF79AFB37
:103D24000028F6D10AE100BF00100240000801405B
:103D34002002002050020020000C01400C02002050
:103D4400AE4CAF4D2B78C3EBC303AE4A02EB430337
:103D540022464FF4F071B3F90200FFF7EBFEAA4ECE
:103D64002B78C3EBC303A94A02EB430332464FF457
:103D7400F071B3F90200FFF7DDFEA54DB4F90000C0
:103D84002A4641F699110011FFF7F2FCA14CB6F94D
:103D94000000224641F699110011FFF7E9FCB5F93C
:103DA40002109D4B1980B4F902009C4B188000014D
:103DB40009019B4C9B4D23462A4609B200B2FFF7EA
:103DC400C9FEB5F900305B42974A1360B4F900208C
:103DD400964B1A609648FFF727FC964B188A01AA5F
:103DE40040F28F2180B2FFF7C3FCBDF90630A3F285
:103DF400776303EB831203EB42038F4A82FB0312C4
:103E0400DB17A3EB620303F5B3731BB28B4A138076
:103E14008B4AB2F9002040F6827101FB02F201F1F3
:103E2400AF4101F5B30101F24F1181FB0201D21739
:103E3400C2EB612212B283490A8083498989C1EBAA
:103E4400C131490088B2814C218081498989C1EB03
:103E5400C13149008CB27F4D298001197E4801800F
:103E64007E49096811F0010F24D17D494AF6CD300D
:103E7400088063480078C0EBC005624C04EB45043D
:103E8400B4F902604E80614C04EB4500B0F9025075
:103E94008D807448B0F90840CC807348B0F90800AC
:103EA40008814A818B817149096B09684968002935
:103EB40000F08C80FFF7EEFD614BB3F9003040F267
:103EC400F142934205DC6A4AB2F90020132A40F316
:103ED4009280654A927922B9624A9279002A00F066
:103EE400D580644B00221A70012218211046FFF776
:103EF4009BF8614A136801331360494BB3F90030EE
:103F0400002BB8BF5B429BB2322B08D8454BB3F9A8
:103F14000030002BB8BF5B429BB2322B02D9564B08
:103F240000221A60364B1A78544B1A70544B1A6894
:103F3400544B1A60494A136801331360504B1B6891
:103F4400504A12689B1A502BF8D9FFF7D1FAFFF7A1
:103F540099F8484B1B78002B7FF4F2AE424B9B79C7
:103F6400002B7FF4EDAE3F4B9B79002B7FF4E8AE42
:103F7400234B1A78C2EBC201224B03EB4103B3F982
:103F84000230002BB8BF5B429BB2312B3FF6D8AE58
:103F94001E4B03EB4102B2F90230002BB8BF5B4267
:103FA4009BB2312B3FF6CCAE0620FFF75BF8042022
:103FB400FFF758F86420FDF723FB0023154A13602C
:103FC400134A13602B4B01221A70B9E6184991F871
:103FD40000C02349A1F80EC02B4F77407D406C40B0
:103FE4006040424053408CEA03030B8212221F4874
:103FF400FDF774FE5EE7FFF797FB7AE7B40700204E
:10400400690400202C000020AC0700203C000020A4
:10401400B0070020A8070020AE070020A407002056
:104024008C0700208E070020D8070020D40700202A
:10403400A20700200C0200206B4CA4078607002076
:104044004C00002084070020E80600209807002088
:10405400F8060020A0070020900700209C070020FD
:104064007007002018070020080700201004002013
:104074006A070020CC070020940700206A0400206F
:10408400BC07002088070020CDABFFFF164A12783A
:104094007AB9164A127892B9154A1278AAB940F236
:1040A4002252934217DC06220A210020FEF7BCFFAD
:1040B4001FE7012218210220FEF7B6FF19E70122AB
:1040C40018210320FEF7B0FF13E701221821042072
:1040D400FEF7AAFF0DE7002211461046FEF7A4FFE3
:1040E400044B00221A7004E76C0700206D070020BF
:1040F4005004002082070020994B02225A60994BF9
:104104001B88B3F5FA6FC0F0A08010B5964B1A68FF
:10411400964BA3FB02139B094FF47A7101FB132303
:10412400002B00F0D380924B9A8891B2914A128866
:10413400521A91490A80DA8891B2904A1288521A26
:104144008F490A805A8891B28E4A1288521A12B242
:104154008D490A80198988B28C490988091A8C48C2
:104164000180598988B28B490988091A8A480180D3
:104174001B8899B2894B1B885B1A1BB288490B8038
:10418400002AB8BF524292B240F252318A4204D855
:10419400844A1278002A40F0A78083494A6C22F4AA
:1041A40000424A64002BB8BF5B429BB240F25232D9
:1041B400934204D87B4B1B78002B40F09B807B4AB6
:1041C400536C23F400435364674A13680133136048
:1041D400774B1A78002A00F09380634B1B6875496B
:1041E400A1FB03131B0B744909780131B3FBF1F0F4
:1041F40001FB1033002B40F08380704B1B787BB99C
:104204006E4B012119706E490B780133DBB20B70D0
:104214006C49097802318B4202DD694B0121197026
:10422400514B1B68B3FBF2F102FB1133002B6AD133
:10423400634B1A78634B1B789A4201D9002B62D1E5
:1042440010216148FDF713F95DE00133454A1380FD
:10425400474A938899B24748B0F900300B4403EBBE
:10426400D3735B100380D38899B24448B0F900300B
:104274000B4403EBD3735B100380138999B2434857
:10428400B0F900300B4403EBD3735B100380538904
:1042940099B24048B0F900300B4403EBD3735B1080
:1042A4000380538899B23748B0F900300B4403EBCC
:1042B400D3735B10038013889AB23849B1F9003084
:1042C400134403EBD3735B100B807047284B98891E
:1042D4003E4C224640F28F2180B2FFF749FAB4F9EE
:1042E40002203B4B1A801EE72F494A6C42F40042DD
:1042F4004A6457E72D4A536C43F40043536463E71D
:104304002E4B1B78FBB9334B93F8F930022B23D097
:10431400314B00221A80314B1B78002B40F00D8169
:104324002E4B01221A701F4B1B78002B5CD02C4B98
:104334009B79002B40F002812A4B9B79002B00F0E3
:10434400FF80002251E0002210211F48FDF789F868
:104354001A4B00221A70D6E71F4B6E221A80DAE736
:1043640000000240CE070020BC070020D34D62109D
:104374000C02002058000020C20700205A00002030
:10438400C407002054000020C00700205C00002067
:10439400C80700205E000020CA0700205600002045
:1043A400C6070020CC07002000340140002C014047
:1043B400B80700205917B7D1BA070020BB0700205F
:1043C400B9070020B7070020000801405000002072
:1043D4004C00002060000020D0070020B607002019
:1043E40008070020180700200022D2B26D4B1A7073
:1043F4006D4B996811F0200F0CBF012400249968BB
:1044040011F0400F0CBF012000209B6813F0800FB7
:104414000CBF01210021654B1A70654A12785A704D
:10442400644A12685A801C7158719971624A1288E0
:104434001A81624A12885A81614A12889A81614BB0
:10444400186800F017FE604BB3F90010B3F90220AE
:10445400B3F904C001F2E7345C4BB3F90030C3F59F
:10446400FA6084426EDB81B2594C616302F2E73137
:1044740088426FDCC3F5FA6292B255498A630CF242
:10448400E73290426EDCC3F5FA639BB2504AD363C1
:10449400504B9A6812F4806F0CBF012000209A6878
:1044A40012F4006F0CBF012100219B6813F4805F9C
:1044B4000CBF01220022484B3A4C24781C703C4C1F
:1044C40024785C70454C24685C80187159719A7129
:1044D400434A12881A81434A12885A81424A1288EE
:1044E4009A81424B186800F0C5FD414BB3F90010A6
:1044F400B3F90220B3F904C001F2E734334BB3F942
:104504000030C3F5FA60844234DB81B2394C616314
:1045140002F2E731884235DCC3F5FA6292B23549DA
:104524008A630CF2E732904234DCC3F5FA639BB23F
:10453400304AD363304B00221A7010BD002254E776
:10454400012252E701F57A74A34201DCA1B28BE7A0
:1045540099B289E702F57A718B4201DC8AB28CE761
:104564009AB28AE70CF57A72934201DC93B28DE732
:104574009BB28BE701F57A74A34201DCA1B2C5E7D3
:1045840099B2C3E702F57A718B4201DC8AB2C6E7BD
:104594009AB2C4E70CF57A72934201DC93B2C7E78E
:1045A4009BB2C5E7CD070020000C0140E8060020BF
:1045B4002A000020D4070020C2070020C4070020DE
:1045C400C0070020D073000808070020D00700208F
:1045D4000034014000100140F8060020D8070020F4
:1045E400C8070020CA070020C6070020D4730008AB
:1045F40018070020002C0140B607002000E004301A
:10460400064B984207D203889BB24FF6FF7293423F
:10461400F5D0002070470120704700BF0008010852
:10462400114B1B889BB2114A128892B288B101289F
:1046340013D13AB94EF6EE618B4201D040230DE01E
:1046440013460BE063B94EF6EE618A4206D140236D
:1046540004E01BB132B9402300E000231846704740
:10466400AB23FBE7AB23F9E70000010800000208D5
:1046740070B506460D460120FFF7D2FFAB2821D0C6
:1046840000F580342034E40201300F4B03EBC02CDE
:10469400644516D22368B3F1FF3F01D00434F7E731
:1046A4002A46002321460120FBF752FE08B180B2BE
:1046B40008E032460023A11C0120FBF749FE80B22A
:1046C40000E0802070BD00BFFFFF000810B586B079
:1046D4000023059301931248039001230493FFF7E9
:1046E4008DFF28B905A901A8FCF742FD044638B995
:1046F400002200230A490120FBF72AFE044610B1D8
:10470400204606B010BD074B03930748FFF776FF1A
:104714000028F5D105A901A8FCF72AFD0446EFE716
:1047240000000108008001080000020838B50446B2
:104734000D460020FFF774FFAB2819D000F5803C2C
:104744000CF1200C4FEACC2C01300A4B03EBC023B4
:104754000CF102029A420AD21A8892B2A24201D001
:10476400043BF5E733F8023C2B80002000E00120F5
:1047740038BD00BFFEFF0008F0B587B000220592E7
:104784008C4B1E88B6B28C490D88ADB2019203934E
:10479400012304934EF6EE639E4240D04FF6FF731E
:1047A4009E420BD0002E00F0A280FFF78FFF00285E
:1047B40040F0FE800025284607B0F0BD45B14EF616
:1047C400EE639D4213D0FFF781FF30BB0025F2E773
:1047D4007848FFF713FF04460028ECD105A901A887
:1047E400FCF7C6FC08B92546E5E785B2E3E771485E
:1047F400FFF704FF20B905A901A8FCF7B9FC40B9EB
:10480400002200236C490120FBF7A2FD18B9002502
:10481400D1E785B2CFE785B2CDE785B2CBE755B313
:104824004FF6FF739D4248D0FFF750FF00285CD13C
:104834000025C0E727B20CE00134A4B2122C1ED824
:104844005C4BDB889BB226465C4A32F814008342F8
:10485400F0D0BE42F0D05A49FFF768FF0128EBD0F0
:10486400574B1988554B33F81600FFF701FF002802
:10487400E2D005469FE72C464FF0FF37DEE70022E3
:1048840000234C490120FBF763FD08B185B292E790
:10489400002301934B4B0393012304934648FFF7F2
:1048A400ADFE0446002886D105A901A8FCF760FCEA
:1048B40008B925467FE785B27DE7424B03933E481E
:1048C400FFF79CFE20B905A901A8FCF751FC40B9EB
:1048D4000022002337490120FBF73AFD18B90025CF
:1048E40069E785B267E785B265E785B263E73DB1FD
:1048F4004FF6FF739D420AD034464FF0FF371CE059
:10490400FFF7E4FE00283FF456AF85B253E72D4B82
:1049140003932948FFF772FE054608B135464AE776
:1049240005A901A8FCF724FC00283FF444AF85B294
:1049340041E727B20CE00134A4B2122C1AD81E4B62
:10494400DB889BB225461D4A32F814008342F0D01E
:10495400BD42F0D01A49FFF7E9FE0128EBD0184B0D
:104964001988164B33F81500FFF782FE0546002818
:10497400E1D020E7002200230F490120FBF7E8FCE7
:1049840008B185B217E7002301930A480390012375
:104994000493FFF733FE054608B135460BE705A936
:1049A40001A8FCF7E5FB00283FF405AF85B202E758
:1049B40085B200E70000010800000208040000209E
:1049C400DC070020008001082DE9F04186B005468F
:1049D4000E4600200590FFF723FE402811D0002842
:1049E4004BD1DFF89C80274F4EF6EE620023394608
:1049F4000120FBF7ADFC40B184B2204606B0BDE80F
:104A0400F081DFF884801E4FEEE731462846FFF739
:104A14002FFE044610B1F0E70134A4B2122C14D8CE
:104A24001A4B33F81400A842F6D01949FFF77EFE5A
:104A34000128F1D0164B1988144B33F81400FFF7F2
:104A440017FE0028E8D00446D7E700230193CDF8E9
:104A54000C800123049305A901A8FCF789FB08B184
:104A640084B2CAE70022002339460120FBF770FC18
:104A740008B984B2C1E784B2BFE7AB24BDE700BF85
:104A84000000010800000208008001080400002062
:104A9400DC07002038B504460D46FFF7E9FD802801
:104AA40000D038BD29462046FFF78EFFF9E770474E
:104AB400FEE7FEE7FEE7FEE770477047704708B57C
:104AC400FCF790FDFCF72BFB08BD000008B502487D
:104AD400FDF758FC08BD00BF8002002008B502485D
:104AE400FDF750FC08BD00BFC402002010B582B021
:104AF4000A4C2046FDF75AFA2368DA6812F0100FC0
:104B040001D102B010BD002201921A6801925B68C3
:104B14000193019BFEF73EFDF3E700BF1004002064
:104B2400884209DD401A80B2B0FBF2F0984201D20B
:104B3400C0B27047D8B2704700207047884209D984
:104B4400401A80B2B0FBF2F0984201D2C0B2704772
:104B5400D8B2704700207047CB0FB3EBD07F07D09B
:104B640090FBF1F301FB13031BB14FF0FF3300E0A3
:104B7400002390FBF1F018447047018070473AB964
:104B8400B3F90020104400B2884203DA1880704759
:104B94000022F7E7198070470023036043607047E1
:104BA40030B48446B0F900401D68A4EB2544B4F544
:104BB400004F04DA14F5004F03DA0F4C01E047F616
:104BC400FF7404FB0154201410801C60BCF9020023
:104BD4005C68A0EB2440B0F5004F04DA10F5004FF8
:104BE40003DA054801E047F6FF7000FB01400114B9
:104BF4005180586030BC70470080FFFF01807047CF
:104C040010B4019C42B92288104480B218808842B2
:104C140004D2208010BC70470022F5E72180F9E718
:104C240013781B1A18BF01230B701070704710B54E
:104C3400044600210430FFF7E1FF0021A01CFFF728
:104C4400DDFF10BD2DE9F04184B0064688461746C5
:104C54001D460A9C22460DF10D01FFF7E1FF0EB13E
:104C6400A3794BB10EB9A379EBB9A3792B702B7847
:104C7400A37104B0BDE8F081231D00930DF10E0370
:104C84009DF80D2041460120FFF7BAFFBDF80E3014
:104C9400434503D8A37923B1012300E001232B70FA
:104CA400E5E70023FBE7A31C00930DF10E039DF839
:104CB4000D2039460120FFF7A3FFBDF80E30BB429B
:104CC40003D8A37913B1012300E000232B70CEE7AE
:104CD40041607047002303604160704730B5BDF9FF
:104CE4000CE0049D059C00FB01F109111CD4002972
:104CF40006DD6FF00040401AD4F800C084451CDC87
:104D040020680844616801444FEA213C41F30F30B4
:104D1400984215DD2B802B88A3EB0C031BB203FBFD
:104D240002F22260616030BDC1F10040D4F800C0DD
:104D34008445DCDA4FF00040E4E76FF00040E1E73F
:104D4400704502DAA5F800E0E5E72880E3E70123EF
:104D540003717047002343710123037170470000FE
:104D640070B5BDF910E0BDF91460069D089C00FB08
:104D740002F2002A1CDB002A05DD6FF0004CACEBCC
:104D8400020CAC451BDB02EB050C227902B123605B
:104D94006379BBB1002325681D4400FB01F1CB12EC
:104DA400B1F1806F10DA13F5004F0FDA284B0DE0E4
:104DB400C2F1004CAC45DEDD4FF0004CE5E76FF08E
:104DC400004CE2E76346E6E747F6FF732A1403EB79
:104DD40042025310B2F5803F04DA13F5004F03DAB0
:104DE4001B4B01E047F6FF731BB2734518DD079AAE
:104DF400A2F800E0BCF1000F1ADBBCF1000FD4BF35
:104E040000220122002B16DB002BD4BF002101213C
:104E1400914213D00023637100232371256070BD78
:104E2400B34202DA079A1680E4E7079A1380E1E7AF
:104E34004FF0FF32E6E74FF0FF31E9E7734503DC5B
:104E4400B34203DB0023E6E70123E4E70123E2E7BF
:104E54000080FFFF01230371704700234371012386
:104E64000371704770B5BDF910E0BDF91460069D7B
:104E7400089C00FB02F2002A1DDB002A05DD6FF00E
:104E8400004CACEB020CAC451CDB02EB050C2279AC
:104E94000AB11B0423606379BBB1002325681D4458
:104EA40000FB01F1CB12B1F1806F10DA13F5004F62
:104EB4000FDA294B0DE0C2F1004CAC45DDDD4FF0BB
:104EC400004CE4E76FF0004CE1E76346E6E747F6A1
:104ED400FF732A1403EB42025310B2F5803F04DA45
:104EE40013F5004F03DA1C4B01E047F6FF731BB2C6
:104EF400734518DD079AA2F800E0BCF1000F1ADB35
:104F0400BCF1000FD4BF00220122002B16DB002BC2
:104F1400D4BF00210121914213D0002363710023E7
:104F24002371256070BDB34202DA079A1680E4E764
:104F3400079A1380E1E74FF0FF32E6E74FF0FF31C5
:104F4400E9E7734503DCB34203DB0023E6E701230F
:104F5400E4E70123E2E700BF0080FFFF0123837041
:104F640070470023C37001238370704770B5BDF987
:104F740010E0BDF91450069E089C00FB02F2002AC2
:104F840015DB002A05DD6FF0004CACEB020CB445D8
:104F940014DB02EB060CA27802B12380E3789BB900
:104FA400BCF1000F0DDB0022624413140DE0C2F1CA
:104FB400004CB445E5DD4FF0004CECE76FF0004CDD
:104FC400E9E74FF6FF72EFE7002322881A4412B292
:104FD40000FB01F1CB12B1F1806F04DA13F5004F3D
:104FE40003DA234B01E047F6FF7303EB42014B1056
:104FF400B1F5803F04DA13F5004F03DA1C4B01E0EE
:1050040047F6FF731BB273451ADD0799A1F800E058
:10501400BCF1000F1CDBBCF1000FD4BF4FF0000C3F
:105024004FF0010C002B16DB002BD4BF0021012113
:10503400614513D00023E3700023A370228070BD68
:10504400AB4202DA07990D80E2E707990B80DFE7AC
:105054004FF0FF3CE6E74FF0FF31E9E7734503DC2F
:10506400AB4203DB0023E6E70123E4E70123E2E7A5
:105074000080FFFF2DE9F04F95B00568C4684668CD
:10508400876831798A00D2B273795800C0B2024479
:10509400D2B2B07902445FFA82FB003B18BF01230D
:1050A40094F89AC094F89B20002918BF83F0010358
:1050B400002818BF83F00103BCF1000F18BF83F070
:1050C4000103002A18BF83F0010394F89C100039EF
:1050D40018BF012181EA0302994256D094F98E0047
:1050E400B54B5B4493F98817CBB294F88FC0A3EB0C
:1050F4000C035BB2012B06D013F1050F03D0FF2381
:1051040084F88E3002E0012384F88E3084F88F1006
:10511400B4F98010A4F856101FFA81FEB4F882C0C6
:10512400AEEB0C031BB2002B43DBB5F904C09C456A
:1051340043DC012384F8A93094F8A98084F8A28080
:1051440094F98E30834214BF4FF0010C4FF0000CE1
:1051540004D094F8A790B9F1000F56D1834234D00B
:10516400B4F98A009BB200FB03F3A4F87A30A4F8E4
:105174008210B4F98630A4F88430B4F98830A4F8E5
:105184008630A4F8881084F8A7C004F14003B5F968
:105194000A100120FFF7F3FC0C90B5F90A308342A2
:1051A40039DBB4F97A300B93002B30DB0B9B07937C
:1051B40034E0ACEB0E031BB2B7E7B5F906C09C456F
:1051C400BADB002384F8A930B6E7B8F1000F05D0A4
:1051D400A889000190FBF1F000B2C3E7A889800020
:1051E40080B20001B4F88480B4F88690C8441FFAF1
:1051F40088F8B4F88890C8441FFA88F8C6440FFAAF
:105204008EFE90FBFEF000B2ACE70020AAE75B4202
:105214001BB2079302E000230B930793B5F9D43034
:10522400079A93420DDC012384F8A83095F8FB30EB
:1052340083B994F8A8205AB394F8A22052B3002258
:1052440009E0B5F9D230079A9342EFDB002384F8E2
:10525400A830EBE70122D2B2089294F8A3200D9271
:1052640094F8A4200E92B6F9022012010F9212B201
:105274000992B6F908204FEA021A46F63F21B1EB2B
:10528400021F09DB4D4A924517DB0FFA8AFA05E043
:105294000022E0E70122DEE746F6402AB6F90A20BA
:1052A4004FEA021846F63F21B1EB021F08DB434ADE
:1052B400904579DB0FFA88F804E0DFF804A1EDE704
:1052C40046F64028002B40F09380089B002B7BD0AF
:1052D400B4F956000C9B984200DC034694F98E10F6
:1052E400012964D0344A5A4492F88827013252B2D0
:1052F4009B0393FBF0F39BB289B201FB03F31BB254
:1053040003EB823343F38F03002B6FDDC3EB0313F3
:1053140043F30F130A9394F9903095F8F920022A75
:1053240000F086804FF0FF3984F89090994517D0AB
:10533400B3B994F998302BB9A4F85230A4F8783062
:10534400A4F85430FF2384F898300023A4F87C3068
:10535400A4F87E30A4F85230A4F85430A4F878307D
:10536400B9F1000F40F0388195F8FA30002B40F085
:10537400AF8044F6E71202FB0AF102FB08F80029A9
:1053840059DB00230B44DB13B8F1000F56DB00227A
:10539400904448F38F384344B3F5004F51DA13F582
:1053A400004F50DA074B4EE0DFF814808AE7024AD8
:1053B4005A4492F988279BE7D8730008C195FFFFE8
:1053C400C095FFFF0080FFFF94F98E30012B08D0B9
:1053D400BB4B5B4493F8883701335BB21B031BB2AE
:1053E40092E7B74B5B4493F98837F7E700238DE7DF
:1053F400B6F90E9095F8F83003FB09F9A9F5F079A0
:105404004FF4B4514846FFF7A7FB80B200EB4000CD
:10541400C0EB0013DB009BB21B019BB2A9EB030999
:105424000FFA89F94FEA89090FFA89F30A9372E7A7
:105434004FF0000978E747F6FF73A3E743F6FF72DE
:10544400A6E747F6FF730FFA83F8B42380220021FE
:105454000A98FFF765FB9A4B33F91020A4F87C20D7
:10546400B43003EB4000B0F90230A4F87E3094F974
:10547400983032780AB94FF0FF3984F898909945FA
:1054840007D033B90022A4F85220A4F87820A4F855
:105494005420B9F1000F40F09F80002B6FD1424699
:1054A400B4F97E3003FB08F848F38F385046B4F95A
:1054B4007C1001FB0AFA4AF38F3AA8EB0A08B8F504
:1054C400004F61DA18F5004F60DADFF8F8815DE02B
:1054D400012B1CD044F6E71202FB0AF102FB08F28E
:1054E400002941DB00230B44DB135B42002A3EDB33
:1054F4004FF00008904448F38F38A3EB0803B3F54A
:10550400004F37DA13F5004F36DA6E4B34E053466A
:105514004146AAEB0802B2F5004F04DA12F5004F37
:1055240003DA684A01E047F6FF7244F6E71808FB1D
:1055340002F8B8F1000F0FDB0022904448F3CF3893
:10554400C3F1000AAAEB0101B1F5004F07DA11F526
:10555400004F06DA5B4904E047F6FF72EDE747F6D1
:10556400FF710FFA81FA70E747F6FF73BBE743F662
:10557400FF78BFE747F6FF730FFA83F865E704F196
:105584003800FFF709FB8AE747F6FF78ADF8488053
:1055940000FB03F343F38F3301FB02F242F38F3238
:1055A4001344B3F5004F04DA13F5004F03DA454B07
:1055B40001E047F6FF73ADF84A3004F1380304F113
:1055C4005202B5F8EC1012A8FFF7EAFAB4F9523017
:1055D400002B4CDBA4F8783094F8A330002B00F0B7
:1055E400078295F8FD30002B35D094F89D3013F0E8
:1055F400040F41D001238DF84F30BBF1070F58D071
:105604004FF00008BBF1000F08BF08F101089DF836
:105614004F309B00DBB29844EA89298A18F0FF08CE
:1056240004F12E03009304F1A10314BF0120002010
:10563400FFF708FB04F12C020DF14F0194F8A100CF
:10564400FFF7EEFA9DF84F30002B35D087F806802F
:10565400BB7984F89D3094F8A130002B34D1337891
:10566400002B3DD07378002B3CD101232DE09BB25D
:105674005B42A4F87830AFE7B4F98C30002B0CDB34
:10568400327872B1B5F9DC2007998A420DDDB5F99B
:10569400DE209A420BDB002304E09BB25B421BB288
:1056A400EEE700238DF84F30A7E70023FAE7012344
:1056B400F8E74FF00208A5E794F89D30BB71C7E7FF
:1056C400D87300080080FFFF0123DBB28DF84F3050
:1056D4007278022A08D095F8FC1041B3012104E045
:1056E4000123F2E70023F0E70121C8B2032A20D006
:1056F4000022D1B294F89E2012BB012384F89E307C
:10570400022384F89F30002384F8993095F8F93007
:10571400022B00F09A80099BB3F57A5F00F31081A5
:1057240013F57A5F80F2C180AE4B0993BDE000218E
:10573400DBE795F8FC200AB10022DAE70122D8E77A
:1057440094F89F20012A16D0002284F89920002B77
:10575400DCD17378012B02D008B90029D6D00123FB
:1057640084F89F30002961D0022384F8A0300323F9
:1057740084F89930CAE743B1002384F8A0300222A8
:1057840084F89F2084F89930C0E794F8A030012B66
:1057940012D0022B27D0012384F8993009B90028AC
:1057A400B4D0002384F8A030A1B3022384F8A0303D
:1057B400032384F89930A9E7022384F89930002858
:1057C400A4D1002384F8A03031B1022384F8A0309E
:1057D400032384F8993099E7032384F8A030012344
:1057E40084F8993092E7032384F8993000298DD105
:1057F400002384F8A03030B1012384F8A0300223C0
:1058040084F8993082E7032384F8A030012384F8D4
:1058140099307BE730B1012384F8A030022384F867
:10582400993073E7032384F8A0306FE730B1012384
:1058340084F8A030022384F8993067E7032384F8BE
:10584400A030012384F8993060E70023ADF840309C
:10585400B5F91230ADF84230B5F9DA30ADF844306C
:10586400B5F9CE30ADF84630099BB3F57A5F05DC67
:1058740013F57A5F05DA5B4B099302E04FF47A5330
:105884000993737814AA02EB430333F9103C5B01C8
:10589400554A82FB0312DB17C3EBE2039BB2099A5E
:1058A40002FB03F343F30F33099394F9971094F82D
:1058B4009930003B18BF01235AB284F89720002B7B
:1058C40042D0002B40F08580B4F97430002BC0F234
:1058D4008480A4F8763094F9912095F8F930022B5D
:1058E40000F03F83B4F974804FF0FF3384F89130B3
:1058F400934206D02AB9A4F84C20A4F84E20A4F868
:105904005020002B40F0C783B4F95A30B4F97E100C
:1059140001FB03F040F38F3EB4F958C0B4F97C2086
:1059240002FB0CF040F38F30AEEB0000B0F5004FFB
:1059340080F21B8310F5004F80F219832B4816E385
:105944004FF47A530993B0E7914204D0012384F8C9
:10595400A6300023A364B4F98C301A03002B28DA90
:1059640042F0784294F8A6108DF84F10002384F882
:10597400A63009BBA06C434213F0006F1ED043F065
:10598400784C2B68634508DB5B4213F0006F18D03A
:1059940043F078439C4500DB6346034413F0006FF7
:1059A40012D043F0784391B1A2641B13A4F874306D
:1059B4008AE722F07842D5E71046DCE723F0784CFA
:1059C400DFE723F07843E5E723F07843EBE7A364CC
:1059D400EBE7099BA4F8743076E79BB25B42A4F82A
:1059E400763078E780C1FFFFD34D62100080FFFF5F
:1059F40094F8A430002B00F04D8195F8FE30002B74
:105A040045D0099B002B0ADBB5F9E02009998A42AD
:105A14000ADBB5F9E2308B4207DC0B4605E00F9B4D
:105A24005B421BB20993EFE71346B5F8E2105B1A29
:105A34001BB2DB0392B2521A12B293FBF2F39BB283
:105A4400B5F9D6200798824205DBB5F9D810814212
:105A540002DC014600E01146B5F8D800091A09B283
:105A6400C90392B2121A12B291FBF2F292B29342A9
:105A740001D300D81A4695F8F930022B4FD0B5F966
:105A8400CC3003FB02F242F3CF32A4F8722094F933
:105A9400952095F8F930022B44D04FF0FF3384F869
:105AA4009530934203D012B9FF2284F89620002B3C
:105AB4007FF411AFB5F91230A4F85C309BB25B42AD
:105AC400A4F85E30B4F95A0000282DDBB5F9701043
